{
  "_format": "hh-sol-artifact-1",
  "contractName": "HoldMyWine",
  "sourceName": "contracts/HoldMyWine.sol",
  "abi": [
    {
      "inputs": [
        {
          "internalType": "address",
          "name": "initialOwner",
          "type": "address"
        }
      ],
      "stateMutability": "nonpayable",
      "type": "constructor"
    },
    {
      "inputs": [
        {
          "internalType": "address",
          "name": "sender",
          "type": "address"
        },
        {
          "internalType": "uint256",
          "name": "balance",
          "type": "uint256"
        },
        {
          "internalType": "uint256",
          "name": "needed",
          "type": "uint256"
        },
        {
          "internalType": "uint256",
          "name": "tokenId",
          "type": "uint256"
        }
      ],
      "name": "ERC1155InsufficientBalance",
      "type": "error"
    },
    {
      "inputs": [
        {
          "internalType": "address",
          "name": "approver",
          "type": "address"
        }
      ],
      "name": "ERC1155InvalidApprover",
      "type": "error"
    },
    {
      "inputs": [
        {
          "internalType": "uint256",
          "name": "idsLength",
          "type": "uint256"
        },
        {
          "internalType": "uint256",
          "name": "valuesLength",
          "type": "uint256"
        }
      ],
      "name": "ERC1155InvalidArrayLength",
      "type": "error"
    },
    {
      "inputs": [
        {
          "internalType": "address",
          "name": "operator",
          "type": "address"
        }
      ],
      "name": "ERC1155InvalidOperator",
      "type": "error"
    },
    {
      "inputs": [
        {
          "internalType": "address",
          "name": "receiver",
          "type": "address"
        }
      ],
      "name": "ERC1155InvalidReceiver",
      "type": "error"
    },
    {
      "inputs": [
        {
          "internalType": "address",
          "name": "sender",
          "type": "address"
        }
      ],
      "name": "ERC1155InvalidSender",
      "type": "error"
    },
    {
      "inputs": [
        {
          "internalType": "address",
          "name": "operator",
          "type": "address"
        },
        {
          "internalType": "address",
          "name": "owner",
          "type": "address"
        }
      ],
      "name": "ERC1155MissingApprovalForAll",
      "type": "error"
    },
    {
      "inputs": [
        {
          "internalType": "address",
          "name": "owner",
          "type": "address"
        }
      ],
      "name": "OwnableInvalidOwner",
      "type": "error"
    },
    {
      "inputs": [
        {
          "internalType": "address",
          "name": "account",
          "type": "address"
        }
      ],
      "name": "OwnableUnauthorizedAccount",
      "type": "error"
    },
    {
      "anonymous": false,
      "inputs": [
        {
          "indexed": true,
          "internalType": "address",
          "name": "account",
          "type": "address"
        },
        {
          "indexed": true,
          "internalType": "address",
          "name": "operator",
          "type": "address"
        },
        {
          "indexed": false,
          "internalType": "bool",
          "name": "approved",
          "type": "bool"
        }
      ],
      "name": "ApprovalForAll",
      "type": "event"
    },
    {
      "anonymous": false,
      "inputs": [
        {
          "indexed": true,
          "internalType": "address",
          "name": "previousOwner",
          "type": "address"
        },
        {
          "indexed": true,
          "internalType": "address",
          "name": "newOwner",
          "type": "address"
        }
      ],
      "name": "OwnershipTransferred",
      "type": "event"
    },
    {
      "anonymous": false,
      "inputs": [
        {
          "indexed": true,
          "internalType": "address",
          "name": "operator",
          "type": "address"
        },
        {
          "indexed": true,
          "internalType": "address",
          "name": "from",
          "type": "address"
        },
        {
          "indexed": true,
          "internalType": "address",
          "name": "to",
          "type": "address"
        },
        {
          "indexed": false,
          "internalType": "uint256[]",
          "name": "ids",
          "type": "uint256[]"
        },
        {
          "indexed": false,
          "internalType": "uint256[]",
          "name": "values",
          "type": "uint256[]"
        }
      ],
      "name": "TransferBatch",
      "type": "event"
    },
    {
      "anonymous": false,
      "inputs": [
        {
          "indexed": true,
          "internalType": "address",
          "name": "operator",
          "type": "address"
        },
        {
          "indexed": true,
          "internalType": "address",
          "name": "from",
          "type": "address"
        },
        {
          "indexed": true,
          "internalType": "address",
          "name": "to",
          "type": "address"
        },
        {
          "indexed": false,
          "internalType": "uint256",
          "name": "id",
          "type": "uint256"
        },
        {
          "indexed": false,
          "internalType": "uint256",
          "name": "value",
          "type": "uint256"
        }
      ],
      "name": "TransferSingle",
      "type": "event"
    },
    {
      "anonymous": false,
      "inputs": [
        {
          "indexed": false,
          "internalType": "string",
          "name": "value",
          "type": "string"
        },
        {
          "indexed": true,
          "internalType": "uint256",
          "name": "id",
          "type": "uint256"
        }
      ],
      "name": "URI",
      "type": "event"
    },
    {
      "inputs": [
        {
          "internalType": "address",
          "name": "account",
          "type": "address"
        },
        {
          "internalType": "uint256",
          "name": "id",
          "type": "uint256"
        }
      ],
      "name": "balanceOf",
      "outputs": [
        {
          "internalType": "uint256",
          "name": "",
          "type": "uint256"
        }
      ],
      "stateMutability": "view",
      "type": "function"
    },
    {
      "inputs": [
        {
          "internalType": "address[]",
          "name": "accounts",
          "type": "address[]"
        },
        {
          "internalType": "uint256[]",
          "name": "ids",
          "type": "uint256[]"
        }
      ],
      "name": "balanceOfBatch",
      "outputs": [
        {
          "internalType": "uint256[]",
          "name": "",
          "type": "uint256[]"
        }
      ],
      "stateMutability": "view",
      "type": "function"
    },
    {
      "inputs": [
        {
          "internalType": "address",
          "name": "account",
          "type": "address"
        },
        {
          "internalType": "uint256",
          "name": "id",
          "type": "uint256"
        },
        {
          "internalType": "uint256",
          "name": "value",
          "type": "uint256"
        }
      ],
      "name": "burn",
      "outputs": [],
      "stateMutability": "nonpayable",
      "type": "function"
    },
    {
      "inputs": [
        {
          "internalType": "address",
          "name": "account",
          "type": "address"
        },
        {
          "internalType": "uint256[]",
          "name": "ids",
          "type": "uint256[]"
        },
        {
          "internalType": "uint256[]",
          "name": "values",
          "type": "uint256[]"
        }
      ],
      "name": "burnBatch",
      "outputs": [],
      "stateMutability": "nonpayable",
      "type": "function"
    },
    {
      "inputs": [
        {
          "internalType": "uint256",
          "name": "id",
          "type": "uint256"
        }
      ],
      "name": "exists",
      "outputs": [
        {
          "internalType": "bool",
          "name": "",
          "type": "bool"
        }
      ],
      "stateMutability": "view",
      "type": "function"
    },
    {
      "inputs": [
        {
          "internalType": "address",
          "name": "account",
          "type": "address"
        },
        {
          "internalType": "address",
          "name": "operator",
          "type": "address"
        }
      ],
      "name": "isApprovedForAll",
      "outputs": [
        {
          "internalType": "bool",
          "name": "",
          "type": "bool"
        }
      ],
      "stateMutability": "view",
      "type": "function"
    },
    {
      "inputs": [
        {
          "internalType": "address",
          "name": "account",
          "type": "address"
        },
        {
          "internalType": "uint256",
          "name": "id",
          "type": "uint256"
        },
        {
          "internalType": "uint256",
          "name": "amount",
          "type": "uint256"
        },
        {
          "internalType": "bytes",
          "name": "data",
          "type": "bytes"
        }
      ],
      "name": "mint",
      "outputs": [],
      "stateMutability": "nonpayable",
      "type": "function"
    },
    {
      "inputs": [
        {
          "internalType": "address",
          "name": "to",
          "type": "address"
        },
        {
          "internalType": "uint256[]",
          "name": "ids",
          "type": "uint256[]"
        },
        {
          "internalType": "uint256[]",
          "name": "amounts",
          "type": "uint256[]"
        },
        {
          "internalType": "bytes",
          "name": "data",
          "type": "bytes"
        }
      ],
      "name": "mintBatch",
      "outputs": [],
      "stateMutability": "nonpayable",
      "type": "function"
    },
    {
      "inputs": [],
      "name": "owner",
      "outputs": [
        {
          "internalType": "address",
          "name": "",
          "type": "address"
        }
      ],
      "stateMutability": "view",
      "type": "function"
    },
    {
      "inputs": [],
      "name": "renounceOwnership",
      "outputs": [],
      "stateMutability": "nonpayable",
      "type": "function"
    },
    {
      "inputs": [
        {
          "internalType": "address",
          "name": "from",
          "type": "address"
        },
        {
          "internalType": "address",
          "name": "to",
          "type": "address"
        },
        {
          "internalType": "uint256[]",
          "name": "ids",
          "type": "uint256[]"
        },
        {
          "internalType": "uint256[]",
          "name": "values",
          "type": "uint256[]"
        },
        {
          "internalType": "bytes",
          "name": "data",
          "type": "bytes"
        }
      ],
      "name": "safeBatchTransferFrom",
      "outputs": [],
      "stateMutability": "nonpayable",
      "type": "function"
    },
    {
      "inputs": [
        {
          "internalType": "address",
          "name": "from",
          "type": "address"
        },
        {
          "internalType": "address",
          "name": "to",
          "type": "address"
        },
        {
          "internalType": "uint256",
          "name": "id",
          "type": "uint256"
        },
        {
          "internalType": "uint256",
          "name": "value",
          "type": "uint256"
        },
        {
          "internalType": "bytes",
          "name": "data",
          "type": "bytes"
        }
      ],
      "name": "safeTransferFrom",
      "outputs": [],
      "stateMutability": "nonpayable",
      "type": "function"
    },
    {
      "inputs": [
        {
          "internalType": "address",
          "name": "operator",
          "type": "address"
        },
        {
          "internalType": "bool",
          "name": "approved",
          "type": "bool"
        }
      ],
      "name": "setApprovalForAll",
      "outputs": [],
      "stateMutability": "nonpayable",
      "type": "function"
    },
    {
      "inputs": [
        {
          "internalType": "string",
          "name": "newuri",
          "type": "string"
        }
      ],
      "name": "setURI",
      "outputs": [],
      "stateMutability": "nonpayable",
      "type": "function"
    },
    {
      "inputs": [
        {
          "internalType": "bytes4",
          "name": "interfaceId",
          "type": "bytes4"
        }
      ],
      "name": "supportsInterface",
      "outputs": [
        {
          "internalType": "bool",
          "name": "",
          "type": "bool"
        }
      ],
      "stateMutability": "view",
      "type": "function"
    },
    {
      "inputs": [],
      "name": "totalSupply",
      "outputs": [
        {
          "internalType": "uint256",
          "name": "",
          "type": "uint256"
        }
      ],
      "stateMutability": "view",
      "type": "function"
    },
    {
      "inputs": [
        {
          "internalType": "uint256",
          "name": "id",
          "type": "uint256"
        }
      ],
      "name": "totalSupply",
      "outputs": [
        {
          "internalType": "uint256",
          "name": "",
          "type": "uint256"
        }
      ],
      "stateMutability": "view",
      "type": "function"
    },
    {
      "inputs": [
        {
          "internalType": "address",
          "name": "newOwner",
          "type": "address"
        }
      ],
      "name": "transferOwnership",
      "outputs": [],
      "stateMutability": "nonpayable",
      "type": "function"
    },
    {
      "inputs": [
        {
          "internalType": "uint256",
          "name": "",
          "type": "uint256"
        }
      ],
      "name": "uri",
      "outputs": [
        {
          "internalType": "string",
          "name": "",
          "type": "string"
        }
      ],
      "stateMutability": "view",
      "type": "function"
    }
  ],
  "bytecode": "0x60806040523480156200001157600080fd5b5060405162001cd638038062001cd6833981016040819052620000349162000101565b806040518060a001604052806072815260200162001c64607291396200005a816200009d565b506001600160a01b0381166200008a57604051631e4fbdf760e01b81526000600482015260240160405180910390fd5b6200009581620000af565b5050620002a4565b6002620000ab8282620001d8565b5050565b600380546001600160a01b038381166001600160a01b0319831681179093556040519116919082907f8be0079c531659141344cd1fd0a4f28419497f9722a3daafe3b4186f6b6457e090600090a35050565b6000602082840312156200011457600080fd5b81516001600160a01b03811681146200012c57600080fd5b9392505050565b634e487b7160e01b600052604160045260246000fd5b600181811c908216806200015e57607f821691505b6020821081036200017f57634e487b7160e01b600052602260045260246000fd5b50919050565b601f821115620001d357600081815260208120601f850160051c81016020861015620001ae5750805b601f850160051c820191505b81811015620001cf57828155600101620001ba565b5050505b505050565b81516001600160401b03811115620001f457620001f462000133565b6200020c8162000205845462000149565b8462000185565b602080601f8311600181146200024457600084156200022b5750858301515b600019600386901b1c1916600185901b178555620001cf565b600085815260208120601f198616915b82811015620002755788860151825594840194600190910190840162000254565b5085821015620002945787850151600019600388901b60f8161c191681555b5050505050600190811b01905550565b6119b080620002b46000396000f3fe608060405234801561001057600080fd5b50600436106101205760003560e01c80636b20c454116100ad578063bd85b03911610071578063bd85b0391461026f578063e985e9c51461028f578063f242432a146102a2578063f2fde38b146102b5578063f5298aca146102c857600080fd5b80636b20c45414610213578063715018a614610226578063731133e91461022e5780638da5cb5b14610241578063a22cb4651461025c57600080fd5b806318160ddd116100f457806318160ddd146101a35780631f7fdffa146101ab5780632eb2c2d6146101be5780634e1273f4146101d15780634f558e79146101f157600080fd5b8062fdd58e1461012557806301ffc9a71461014b57806302fe53051461016e5780630e89341c14610183575b600080fd5b610138610133366004611043565b6102db565b6040519081526020015b60405180910390f35b61015e610159366004611083565b610303565b6040519015158152602001610142565b61018161017c366004611146565b610353565b005b610196610191366004611197565b610367565b60405161014291906111f6565b600554610138565b6101816101b93660046112b8565b6103fb565b6101816101cc366004611351565b610415565b6101e46101df3660046113fb565b610481565b60405161014291906114f6565b61015e6101ff366004611197565b600090815260046020526040902054151590565b610181610221366004611509565b610556565b6101816105ba565b61018161023c36600461157d565b6105ce565b6003546040516001600160a01b039091168152602001610142565b61018161026a3660046115d2565b6105e2565b61013861027d366004611197565b60009081526004602052604090205490565b61015e61029d36600461160e565b6105f1565b6101816102b0366004611641565b61061f565b6101816102c33660046116a6565b61067e565b6101816102d63660046116c1565b6106b9565b6000818152602081815260408083206001600160a01b03861684529091529020545b92915050565b60006001600160e01b03198216636cdb3d1360e11b148061033457506001600160e01b031982166303a24d0760e21b145b806102fd57506301ffc9a760e01b6001600160e01b03198316146102fd565b61035b6106ef565b6103648161071c565b50565b606060028054610376906116f4565b80601f01602080910402602001604051908101604052809291908181526020018280546103a2906116f4565b80156103ef5780601f106103c4576101008083540402835291602001916103ef565b820191906000526020600020905b8154815290600101906020018083116103d257829003601f168201915b50505050509050919050565b6104036106ef565b61040f84848484610728565b50505050565b336001600160a01b0386168114801590610436575061043486826105f1565b155b1561046c5760405163711bec9160e11b81526001600160a01b038083166004830152871660248201526044015b60405180910390fd5b6104798686868686610760565b505050505050565b606081518351146104b25781518351604051635b05999160e01b815260048101929092526024820152604401610463565b6000835167ffffffffffffffff8111156104ce576104ce6110a7565b6040519080825280602002602001820160405280156104f7578160200160208202803683370190505b50905060005b845181101561054e57602080820286010151610521906020808402870101516102db565b8282815181106105335761053361172e565b60209081029190910101526105478161175a565b90506104fd565b509392505050565b6001600160a01b0383163314801590610576575061057483336105f1565b155b156105aa57335b60405163711bec9160e11b81526001600160a01b0391821660048201529084166024820152604401610463565b6105b58383836107c7565b505050565b6105c26106ef565b6105cc600061080d565b565b6105d66106ef565b61040f8484848461085f565b6105ed3383836108bc565b5050565b6001600160a01b03918216600090815260016020908152604080832093909416825291909152205460ff1690565b336001600160a01b0386168114801590610640575061063e86826105f1565b155b156106715760405163711bec9160e11b81526001600160a01b03808316600483015287166024820152604401610463565b6104798686868686610952565b6106866106ef565b6001600160a01b0381166106b057604051631e4fbdf760e01b815260006004820152602401610463565b6103648161080d565b6001600160a01b03831633148015906106d957506106d783336105f1565b155b156106e4573361057d565b6105b58383836109e0565b6003546001600160a01b031633146105cc5760405163118cdaa760e01b8152336004820152602401610463565b60026105ed82826117b9565b6001600160a01b03841661075257604051632bfa23e760e11b815260006004820152602401610463565b61040f600085858585610a44565b6001600160a01b03841661078a57604051632bfa23e760e11b815260006004820152602401610463565b6001600160a01b0385166107b357604051626a0d4560e21b815260006004820152602401610463565b6107c08585858585610a44565b5050505050565b6001600160a01b0383166107f057604051626a0d4560e21b815260006004820152602401610463565b6105b5836000848460405180602001604052806000815250610a44565b600380546001600160a01b038381166001600160a01b0319831681179093556040519116919082907f8be0079c531659141344cd1fd0a4f28419497f9722a3daafe3b4186f6b6457e090600090a35050565b6001600160a01b03841661088957604051632bfa23e760e11b815260006004820152602401610463565b60408051600180825260208201869052818301908152606082018590526080820190925290610479600087848487610a44565b6001600160a01b0382166108e55760405162ced3e160e81b815260006004820152602401610463565b6001600160a01b03838116600081815260016020908152604080832094871680845294825291829020805460ff191686151590811790915591519182527f17307eab39ab6107e8899845ad3d59bd9653f200f220920489ca2b5937696c31910160405180910390a3505050565b6001600160a01b03841661097c57604051632bfa23e760e11b815260006004820152602401610463565b6001600160a01b0385166109a557604051626a0d4560e21b815260006004820152602401610463565b604080516001808252602082018690528183019081526060820185905260808201909252906109d78787848487610a44565b50505050505050565b6001600160a01b038316610a0957604051626a0d4560e21b815260006004820152602401610463565b604080516001808252602082018590528183019081526060820184905260a082019092526000608082018181529192916107c0918791859085905b610a5085858585610a97565b6001600160a01b038416156107c05782513390600103610a895760208481015190840151610a82838989858589610aa3565b5050610479565b610479818787878787610bc7565b61040f84848484610cb0565b6001600160a01b0384163b156104795760405163f23a6e6160e01b81526001600160a01b0385169063f23a6e6190610ae79089908990889088908890600401611879565b6020604051808303816000875af1925050508015610b22575060408051601f3d908101601f19168201909252610b1f918101906118be565b60015b610b8b573d808015610b50576040519150601f19603f3d011682016040523d82523d6000602084013e610b55565b606091505b508051600003610b8357604051632bfa23e760e11b81526001600160a01b0386166004820152602401610463565b805181602001fd5b6001600160e01b0319811663f23a6e6160e01b146109d757604051632bfa23e760e11b81526001600160a01b0386166004820152602401610463565b6001600160a01b0384163b156104795760405163bc197c8160e01b81526001600160a01b0385169063bc197c8190610c0b90899089908890889088906004016118db565b6020604051808303816000875af1925050508015610c46575060408051601f3d908101601f19168201909252610c43918101906118be565b60015b610c74573d808015610b50576040519150601f19603f3d011682016040523d82523d6000602084013e610b55565b6001600160e01b0319811663bc197c8160e01b146109d757604051632bfa23e760e11b81526001600160a01b0386166004820152602401610463565b610cbc84848484610e0a565b6001600160a01b038416610d6f576000805b8351811015610d55576000838281518110610ceb57610ceb61172e565b602002602001015190508060046000878581518110610d0c57610d0c61172e565b602002602001015181526020019081526020016000206000828254610d319190611939565b90915550610d4190508184611939565b92505080610d4e9061175a565b9050610cce565b508060056000828254610d689190611939565b9091555050505b6001600160a01b03831661040f576000805b8351811015610df9576000838281518110610d9e57610d9e61172e565b602002602001015190508060046000878581518110610dbf57610dbf61172e565b602002602001015181526020019081526020016000206000828254039250508190555080830192505080610df29061175a565b9050610d81565b506005805491909103905550505050565b8051825114610e395781518151604051635b05999160e01b815260048101929092526024820152604401610463565b3360005b8351811015610f48576020818102858101820151908501909101516001600160a01b03881615610ef0576000828152602081815260408083206001600160a01b038c16845290915290205481811015610ec9576040516303dee4c560e01b81526001600160a01b038a166004820152602481018290526044810183905260648101849052608401610463565b6000838152602081815260408083206001600160a01b038d16845290915290209082900390555b6001600160a01b03871615610f35576000828152602081815260408083206001600160a01b038b16845290915281208054839290610f2f908490611939565b90915550505b505080610f419061175a565b9050610e3d565b508251600103610fc95760208301516000906020840151909150856001600160a01b0316876001600160a01b0316846001600160a01b03167fc3d58168c5ae7397731d063d5bbf3d657854427343f4c083240f7aacaa2d0f628585604051610fba929190918252602082015260400190565b60405180910390a450506107c0565b836001600160a01b0316856001600160a01b0316826001600160a01b03167f4a39dc06d4c0dbc64b70af90fd698a233a518aa5d07e595d983b8c0526c8f7fb868660405161101892919061194c565b60405180910390a45050505050565b80356001600160a01b038116811461103e57600080fd5b919050565b6000806040838503121561105657600080fd5b61105f83611027565b946020939093013593505050565b6001600160e01b03198116811461036457600080fd5b60006020828403121561109557600080fd5b81356110a08161106d565b9392505050565b634e487b7160e01b600052604160045260246000fd5b604051601f8201601f1916810167ffffffffffffffff811182821017156110e6576110e66110a7565b604052919050565b600067ffffffffffffffff831115611108576111086110a7565b61111b601f8401601f19166020016110bd565b905082815283838301111561112f57600080fd5b828260208301376000602084830101529392505050565b60006020828403121561115857600080fd5b813567ffffffffffffffff81111561116f57600080fd5b8201601f8101841361118057600080fd5b61118f848235602084016110ee565b949350505050565b6000602082840312156111a957600080fd5b5035919050565b6000815180845260005b818110156111d6576020818501810151868301820152016111ba565b506000602082860101526020601f19601f83011685010191505092915050565b6020815260006110a060208301846111b0565b600067ffffffffffffffff821115611223576112236110a7565b5060051b60200190565b600082601f83011261123e57600080fd5b8135602061125361124e83611209565b6110bd565b82815260059290921b8401810191818101908684111561127257600080fd5b8286015b8481101561128d5780358352918301918301611276565b509695505050505050565b600082601f8301126112a957600080fd5b6110a0838335602085016110ee565b600080600080608085870312156112ce57600080fd5b6112d785611027565b9350602085013567ffffffffffffffff808211156112f457600080fd5b6113008883890161122d565b9450604087013591508082111561131657600080fd5b6113228883890161122d565b9350606087013591508082111561133857600080fd5b5061134587828801611298565b91505092959194509250565b600080600080600060a0868803121561136957600080fd5b61137286611027565b945061138060208701611027565b9350604086013567ffffffffffffffff8082111561139d57600080fd5b6113a989838a0161122d565b945060608801359150808211156113bf57600080fd5b6113cb89838a0161122d565b935060808801359150808211156113e157600080fd5b506113ee88828901611298565b9150509295509295909350565b6000806040838503121561140e57600080fd5b823567ffffffffffffffff8082111561142657600080fd5b818501915085601f83011261143a57600080fd5b8135602061144a61124e83611209565b82815260059290921b8401810191818101908984111561146957600080fd5b948201945b8386101561148e5761147f86611027565b8252948201949082019061146e565b965050860135925050808211156114a457600080fd5b506114b18582860161122d565b9150509250929050565b600081518084526020808501945080840160005b838110156114eb578151875295820195908201906001016114cf565b509495945050505050565b6020815260006110a060208301846114bb565b60008060006060848603121561151e57600080fd5b61152784611027565b9250602084013567ffffffffffffffff8082111561154457600080fd5b6115508783880161122d565b9350604086013591508082111561156657600080fd5b506115738682870161122d565b9150509250925092565b6000806000806080858703121561159357600080fd5b61159c85611027565b93506020850135925060408501359150606085013567ffffffffffffffff8111156115c657600080fd5b61134587828801611298565b600080604083850312156115e557600080fd5b6115ee83611027565b91506020830135801515811461160357600080fd5b809150509250929050565b6000806040838503121561162157600080fd5b61162a83611027565b915061163860208401611027565b90509250929050565b600080600080600060a0868803121561165957600080fd5b61166286611027565b945061167060208701611027565b93506040860135925060608601359150608086013567ffffffffffffffff81111561169a57600080fd5b6113ee88828901611298565b6000602082840312156116b857600080fd5b6110a082611027565b6000806000606084860312156116d657600080fd5b6116df84611027565b95602085013595506040909401359392505050565b600181811c9082168061170857607f821691505b60208210810361172857634e487b7160e01b600052602260045260246000fd5b50919050565b634e487b7160e01b600052603260045260246000fd5b634e487b7160e01b600052601160045260246000fd5b60006001820161176c5761176c611744565b5060010190565b601f8211156105b557600081815260208120601f850160051c8101602086101561179a5750805b601f850160051c820191505b81811015610479578281556001016117a6565b815167ffffffffffffffff8111156117d3576117d36110a7565b6117e7816117e184546116f4565b84611773565b602080601f83116001811461181c57600084156118045750858301515b600019600386901b1c1916600185901b178555610479565b600085815260208120601f198616915b8281101561184b5788860151825594840194600190910190840161182c565b50858210156118695787850151600019600388901b60f8161c191681555b5050505050600190811b01905550565b6001600160a01b03868116825285166020820152604081018490526060810183905260a0608082018190526000906118b3908301846111b0565b979650505050505050565b6000602082840312156118d057600080fd5b81516110a08161106d565b6001600160a01b0386811682528516602082015260a060408201819052600090611907908301866114bb565b828103606084015261191981866114bb565b9050828103608084015261192d81856111b0565b98975050505050505050565b808201808211156102fd576102fd611744565b60408152600061195f60408301856114bb565b828103602084015261197181856114bb565b9594505050505056fea264697066735822122009aedbf679955ae0a8cceb74616dc3615d25bfe888bc216ee396839ee0c5532464736f6c6343000814003368747470733a2f2f667563687369612d776f7274687768696c652d6375636b6f6f2d3936352e6d7970696e6174612e636c6f75642f697066732f516d5a7634554e6b787555395a4b42384a335a5063394d48647679774253565139446439564e436a57425a6e654c2f7b69647d2e6a736f6e",
  "linkReferences": {},
  "deployedLinkReferences": {}
}